{
  "_format": "hh-sol-artifact-1",
  "contractName": "Cryptocurrency",
  "sourceName": "contracts/cryptocurrency.sol",
  "abi": [
    {
      "inputs": [],
      "stateMutability": "nonpayable",
      "type": "constructor"
    },
    {
      "anonymous": false,
      "inputs": [
        {
          "indexed": false,
          "internalType": "uint256",
          "name": "amount",
          "type": "uint256"
        }
      ],
      "name": "CheckBalance",
      "type": "event"
    },
    {
      "inputs": [
        {
          "internalType": "address",
          "name": "",
          "type": "address"
        }
      ],
      "name": "balances",
      "outputs": [
        {
          "internalType": "uint256",
          "name": "",
          "type": "uint256"
        }
      ],
      "stateMutability": "view",
      "type": "function"
    },
    {
      "inputs": [],
      "name": "buyer",
      "outputs": [
        {
          "internalType": "address",
          "name": "",
          "type": "address"
        }
      ],
      "stateMutability": "view",
      "type": "function"
    },
    {
      "inputs": [
        {
          "internalType": "address",
          "name": "_seller",
          "type": "address"
        },
        {
          "internalType": "uint256",
          "name": "_amount",
          "type": "uint256"
        }
      ],
      "name": "createEscrow",
      "outputs": [],
      "stateMutability": "payable",
      "type": "function"
    },
    {
      "inputs": [],
      "name": "deposit",
      "outputs": [],
      "stateMutability": "payable",
      "type": "function"
    },
    {
      "inputs": [],
      "name": "escrowAmount",
      "outputs": [
        {
          "internalType": "uint256",
          "name": "",
          "type": "uint256"
        }
      ],
      "stateMutability": "view",
      "type": "function"
    },
    {
      "inputs": [],
      "name": "escrowReleased",
      "outputs": [
        {
          "internalType": "bool",
          "name": "",
          "type": "bool"
        }
      ],
      "stateMutability": "view",
      "type": "function"
    },
    {
      "inputs": [
        {
          "internalType": "address",
          "name": "user_account",
          "type": "address"
        }
      ],
      "name": "getBalance",
      "outputs": [
        {
          "internalType": "uint256",
          "name": "",
          "type": "uint256"
        }
      ],
      "stateMutability": "nonpayable",
      "type": "function"
    },
    {
      "inputs": [],
      "name": "refundEscrow",
      "outputs": [],
      "stateMutability": "nonpayable",
      "type": "function"
    },
    {
      "inputs": [],
      "name": "releaseEscrow",
      "outputs": [],
      "stateMutability": "nonpayable",
      "type": "function"
    },
    {
      "inputs": [],
      "name": "seller",
      "outputs": [
        {
          "internalType": "address",
          "name": "",
          "type": "address"
        }
      ],
      "stateMutability": "view",
      "type": "function"
    },
    {
      "inputs": [
        {
          "internalType": "address",
          "name": "to",
          "type": "address"
        },
        {
          "internalType": "uint256",
          "name": "amount",
          "type": "uint256"
        }
      ],
      "name": "transfer",
      "outputs": [],
      "stateMutability": "nonpayable",
      "type": "function"
    },
    {
      "inputs": [
        {
          "internalType": "address",
          "name": "to",
          "type": "address"
        },
        {
          "internalType": "uint256",
          "name": "amount",
          "type": "uint256"
        },
        {
          "internalType": "bool",
          "name": "condition",
          "type": "bool"
        }
      ],
      "name": "transferWithCondition",
      "outputs": [],
      "stateMutability": "nonpayable",
      "type": "function"
    }
  ],
  "bytecode": "0x608060405234801561001057600080fd5b506000600460006101000a81548160ff0219169083151502179055506113a08061003b6000396000f3fe6080604052600436106100a75760003560e01c8063757a554311610064578063757a55431461019d5780637b499faa146101b457806392918244146101df578063a9059cbb14610208578063d0e30db014610231578063f8b2cb4f1461023b576100a7565b806308551a53146100ac57806327e235e3146100d75780634614874e1461011457806347a7846f146101305780634be919441461015b5780637150d8ae14610172575b600080fd5b3480156100b857600080fd5b506100c1610278565b6040516100ce9190610cfc565b60405180910390f35b3480156100e357600080fd5b506100fe60048036038101906100f99190610d48565b61029e565b60405161010b9190610d8e565b60405180910390f35b61012e60048036038101906101299190610dd5565b6102b6565b005b34801561013c57600080fd5b506101456104e1565b6040516101529190610d8e565b60405180910390f35b34801561016757600080fd5b506101706104e7565b005b34801561017e57600080fd5b50610187610663565b6040516101949190610cfc565b60405180910390f35b3480156101a957600080fd5b506101b2610689565b005b3480156101c057600080fd5b506101c9610805565b6040516101d69190610e30565b60405180910390f35b3480156101eb57600080fd5b5061020660048036038101906102019190610e77565b610818565b005b34801561021457600080fd5b5061022f600480360381019061022a9190610dd5565b6109b7565b005b610239610b55565b005b34801561024757600080fd5b50610262600480360381019061025d9190610d48565b610bef565b60405161026f9190610d8e565b60405180910390f35b600260009054906101000a900473ffffffffffffffffffffffffffffffffffffffff1681565b60006020528060005260406000206000915090505481565b600073ffffffffffffffffffffffffffffffffffffffff168273ffffffffffffffffffffffffffffffffffffffff1603610325576040517f08c379a000000000000000000000000000000000000000000000000000000000815260040161031c90610f27565b60405180910390fd5b600460009054906101000a900460ff1615610375576040517f08c379a000000000000000000000000000000000000000000000000000000000815260040161036c90610f93565b60405180910390fd5b806000803373ffffffffffffffffffffffffffffffffffffffff1673ffffffffffffffffffffffffffffffffffffffff1681526020019081526020016000205410156103f6576040517f08c379a00000000000000000000000000000000000000000000000000000000081526004016103ed90610fff565b60405180910390fd5b60008111610439576040517f08c379a000000000000000000000000000000000000000000000000000000000815260040161043090611091565b60405180910390fd5b81600260006101000a81548173ffffffffffffffffffffffffffffffffffffffff021916908373ffffffffffffffffffffffffffffffffffffffff16021790555033600160006101000a81548173ffffffffffffffffffffffffffffffffffffffff021916908373ffffffffffffffffffffffffffffffffffffffff160217905550806003819055506000600460006101000a81548160ff0219169083151502179055505050565b60035481565b600260009054906101000a900473ffffffffffffffffffffffffffffffffffffffff1673ffffffffffffffffffffffffffffffffffffffff163373ffffffffffffffffffffffffffffffffffffffff1614610577576040517f08c379a000000000000000000000000000000000000000000000000000000000815260040161056e90611123565b60405180910390fd5b60001515600460009054906101000a900460ff161515146105cd576040517f08c379a00000000000000000000000000000000000000000000000000000000081526004016105c490610f93565b60405180910390fd5b600354600080600160009054906101000a900473ffffffffffffffffffffffffffffffffffffffff1673ffffffffffffffffffffffffffffffffffffffff1673ffffffffffffffffffffffffffffffffffffffff168152602001908152602001600020600082825461063f9190611172565b925050819055506001600460006101000a81548160ff021916908315150217905550565b600160009054906101000a900473ffffffffffffffffffffffffffffffffffffffff1681565b600160009054906101000a900473ffffffffffffffffffffffffffffffffffffffff1673ffffffffffffffffffffffffffffffffffffffff163373ffffffffffffffffffffffffffffffffffffffff1614610719576040517f08c379a000000000000000000000000000000000000000000000000000000000815260040161071090611218565b60405180910390fd5b60001515600460009054906101000a900460ff1615151461076f576040517f08c379a000000000000000000000000000000000000000000000000000000000815260040161076690610f93565b60405180910390fd5b600354600080600260009054906101000a900473ffffffffffffffffffffffffffffffffffffffff1673ffffffffffffffffffffffffffffffffffffffff1673ffffffffffffffffffffffffffffffffffffffff16815260200190815260200160002060008282546107e19190611172565b925050819055506001600460006101000a81548160ff021916908315150217905550565b600460009054906101000a900460ff1681565b600073ffffffffffffffffffffffffffffffffffffffff168373ffffffffffffffffffffffffffffffffffffffff1603610887576040517f08c379a000000000000000000000000000000000000000000000000000000000815260040161087e90611284565b60405180910390fd5b816000803373ffffffffffffffffffffffffffffffffffffffff1673ffffffffffffffffffffffffffffffffffffffff168152602001908152602001600020541015610908576040517f08c379a00000000000000000000000000000000000000000000000000000000081526004016108ff90610fff565b60405180910390fd5b816000803373ffffffffffffffffffffffffffffffffffffffff1673ffffffffffffffffffffffffffffffffffffffff168152602001908152602001600020600082825461095691906112a4565b92505081905550816000808573ffffffffffffffffffffffffffffffffffffffff1673ffffffffffffffffffffffffffffffffffffffff16815260200190815260200160002060008282546109ab9190611172565b92505081905550505050565b600073ffffffffffffffffffffffffffffffffffffffff168273ffffffffffffffffffffffffffffffffffffffff1603610a26576040517f08c379a0000000000000000000000000000000000000000000000000000000008152600401610a1d90611284565b60405180910390fd5b806000803373ffffffffffffffffffffffffffffffffffffffff1673ffffffffffffffffffffffffffffffffffffffff168152602001908152602001600020541015610aa7576040517f08c379a0000000000000000000000000000000000000000000000000000000008152600401610a9e90610fff565b60405180910390fd5b806000803373ffffffffffffffffffffffffffffffffffffffff1673ffffffffffffffffffffffffffffffffffffffff1681526020019081526020016000206000828254610af591906112a4565b92505081905550806000808473ffffffffffffffffffffffffffffffffffffffff1673ffffffffffffffffffffffffffffffffffffffff1681526020019081526020016000206000828254610b4a9190611172565b925050819055505050565b60003411610b98576040517f08c379a0000000000000000000000000000000000000000000000000000000008152600401610b8f9061134a565b60405180910390fd5b346000803373ffffffffffffffffffffffffffffffffffffffff1673ffffffffffffffffffffffffffffffffffffffff1681526020019081526020016000206000828254610be69190611172565b92505081905550565b60008073ffffffffffffffffffffffffffffffffffffffff168273ffffffffffffffffffffffffffffffffffffffff1603610c5f576040517f08c379a0000000000000000000000000000000000000000000000000000000008152600401610c5690610f27565b60405180910390fd5b60008273ffffffffffffffffffffffffffffffffffffffff163190507f7c4b3ebe24b67f845d481885128ad41f55e5d927e00e2573453e1a8cf437b75c81604051610caa9190610d8e565b60405180910390a180915050919050565b600073ffffffffffffffffffffffffffffffffffffffff82169050919050565b6000610ce682610cbb565b9050919050565b610cf681610cdb565b82525050565b6000602082019050610d116000830184610ced565b92915050565b600080fd5b610d2581610cdb565b8114610d3057600080fd5b50565b600081359050610d4281610d1c565b92915050565b600060208284031215610d5e57610d5d610d17565b5b6000610d6c84828501610d33565b91505092915050565b6000819050919050565b610d8881610d75565b82525050565b6000602082019050610da36000830184610d7f565b92915050565b610db281610d75565b8114610dbd57600080fd5b50565b600081359050610dcf81610da9565b92915050565b60008060408385031215610dec57610deb610d17565b5b6000610dfa85828601610d33565b9250506020610e0b85828601610dc0565b9150509250929050565b60008115159050919050565b610e2a81610e15565b82525050565b6000602082019050610e456000830184610e21565b92915050565b610e5481610e15565b8114610e5f57600080fd5b50565b600081359050610e7181610e4b565b92915050565b600080600060608486031215610e9057610e8f610d17565b5b6000610e9e86828701610d33565b9350506020610eaf86828701610dc0565b9250506040610ec086828701610e62565b9150509250925092565b600082825260208201905092915050565b7f496e76616c696420726563697069656e74206164647265737300000000000000600082015250565b6000610f11601983610eca565b9150610f1c82610edb565b602082019050919050565b60006020820190508181036000830152610f4081610f04565b9050919050565b7f457363726f7720616c72656164792072656c65617365642e0000000000000000600082015250565b6000610f7d601883610eca565b9150610f8882610f47565b602082019050919050565b60006020820190508181036000830152610fac81610f70565b9050919050565b7f496e73756666696369656e742062616c616e63652e0000000000000000000000600082015250565b6000610fe9601583610eca565b9150610ff482610fb3565b602082019050919050565b6000602082019050818103600083015261101881610fdc565b9050919050565b7f457363726f7720616d6f756e74206d757374206265206772656174657220746860008201527f616e20302e000000000000000000000000000000000000000000000000000000602082015250565b600061107b602583610eca565b91506110868261101f565b604082019050919050565b600060208201905081810360008301526110aa8161106e565b9050919050565b7f4f6e6c79207468652073656c6c65722063616e20726566756e6420657363726f60008201527f772e000000000000000000000000000000000000000000000000000000000000602082015250565b600061110d602283610eca565b9150611118826110b1565b604082019050919050565b6000602082019050818103600083015261113c81611100565b9050919050565b7f4e487b7100000000000000000000000000000000000000000000000000000000600052601160045260246000fd5b600061117d82610d75565b915061118883610d75565b92508282019050808211156111a05761119f611143565b5b92915050565b7f4f6e6c79207468652062757965722063616e2072656c6561736520657363726f60008201527f772e000000000000000000000000000000000000000000000000000000000000602082015250565b6000611202602283610eca565b915061120d826111a6565b604082019050919050565b60006020820190508181036000830152611231816111f5565b9050919050565b7f496e76616c696420616464726573730000000000000000000000000000000000600082015250565b600061126e600f83610eca565b915061127982611238565b602082019050919050565b6000602082019050818103600083015261129d81611261565b9050919050565b60006112af82610d75565b91506112ba83610d75565b92508282039050818111156112d2576112d1611143565b5b92915050565b7f596f75206d757374206465706f73697420736f6d652063727970746f6375727260008201527f656e63792e000000000000000000000000000000000000000000000000000000602082015250565b6000611334602583610eca565b915061133f826112d8565b604082019050919050565b6000602082019050818103600083015261136381611327565b905091905056fea2646970667358221220262b53f06a7895ad89d40e478ded02a93f6afa0048fe87dfeebf0b3faa8f0ab164736f6c63430008130033",
  "linkReferences": {},
  "deployedLinkReferences": {}
}